:020000040800F2
:1000000000500020E9020008850200088D02000867
:10001000950200089D020008A502000800000000EB
:10002000000000000000000000000000AD02000819
:10003000B902000800000000C5020008D102000853
:1000400031030008310300083103000831030008C0
:1000500031030008310300083103000831030008B0
:1000600031030008310300083103000831030008A0
:100070003103000831030008310300083103000890
:100080003103000831030008310300083103000880
:100090003103000831030008310300083103000870
:1000A0003103000831030008310300083103000860
:1000B0003103000831030008310300083103000850
:1000C0003103000831030008310300083103000840
:1000D0003103000831030008310300083103000830
:1000E000310300083103000831030008000000005C
:1000F0000000000000000000000000000000000000
:0C01000000000000000000005FF808F1A3
:10010C0010B5054C237833B9044B13B10448AFF345
:10011C0000800123237010BD0400002000000000AB
:10012C00A003000808B5034B1BB103490348AFF308
:10013C00008008BD0000000008000020A00300089B
:10014C0080B500AF3F4B1B683E4A43F480331360CD
:10015C0000BF3C4B1B6803F40033002BF9D03A4B27
:10016C001B68394A43F004031360374B1B68364A4B
:10017C0043F010031360334B5B68324A43F4803313
:10018C005360304B5B682F4A43F4E01353602D4BA4
:10019C005B682C4A43F4806353602A4B1B68294AE2
:1001AC0043F08073136000BF264B1B6803F0007391
:1001BC00002BF9D0234B5B68224A43F002035360B7
:1001CC0000BF204B5B6803F00C03082BF9D11D4BCF
:1001DC009B691C4A43F0100393611A4B9B69194AA3
:1001EC0043F004039361194B5B68184A23F47003C2
:1001FC005360164B5B68154A43F400135360144B61
:10020C001B68134A23F00F031360114B1B68104A31
:10021C0043F0080313600E4BDB680D4B0022DA60D1
:10022C000B4B9B6803F00103002B04D0074B4FF4DE
:10023C000052DA6002E0054B0022DA60054800F05B
:10024C000BF8EDE7001002400020024000100140C6
:10025C00000801404019010080B483B000AF786001
:10026C0000BF7B685A1E7A60002BFAD100BF00BF1A
:10027C000C37BD4680BC704780B400AF00BFFDE7B3
:10028C0080B400AF00BFFDE780B400AF00BFFDE756
:10029C0080B400AF00BFFDE780B400AF00BFFDE746
:1002AC0080B400AF00BFBD4680BC704780B400AFC7
:1002BC0000BFBD4680BC704780B400AF00BFBD46D8
:1002CC0080BC704780B500AF00F02EF800BF80BD39
:1002DC0080B400AF00BFBD4680BC7047FFF7F8FF8D
:1002EC000B480C490C4A002302E0D458C450043388
:1002FC00C4188C42F9D3094A094C002301E013605D
:10030C000432A242FBD300F021F8FFF719FF70472B
:10031C000000002004000020C0030008040000209E
:10032C0024000020FEE7000080B400AF054B1B78D2
:10033C001A46054B1B681344034A136000BFBD46A5
:10034C0080BC7047000000202000002070B5002603
:10035C000C4D0D4C641BA410A64209D100F01AF8E8
:10036C0000260A4D0A4C641BA410A64205D170BD90
:10037C0055F8043B98470136EEE755F8043B98478F
:10038C000136F2E7B8030008B8030008B803000808
:10039C00BC030008F8B500BFF8BC08BC9E4670470B
:0C03AC00F8B500BFF8BC08BC9E467047C6
:0403B8003101000807
:0403BC000D01000827
:0403C0000100000038
:04000005080002E904
:00000001FF
